{
  "address": "0x089A2C82F8A2Bf932DFc7A9953f673d52d3b292e",
  "abi": [
    {
      "inputs": [
        {
          "internalType": "address",
          "name": "accessNft",
          "type": "address"
        }
      ],
      "name": "AccessNftNotValidError",
      "type": "error"
    },
    {
      "inputs": [],
      "name": "DistributionTimeframeError",
      "type": "error"
    },
    {
      "inputs": [
        {
          "internalType": "address",
          "name": "account",
          "type": "address"
        },
        {
          "internalType": "address",
          "name": "accessNft",
          "type": "address"
        }
      ],
      "name": "NoAccessNftError",
      "type": "error"
    },
    {
      "inputs": [],
      "name": "NoActiveDistributionError",
      "type": "error"
    },
    {
      "inputs": [
        {
          "internalType": "bytes32",
          "name": "role",
          "type": "bytes32"
        },
        {
          "internalType": "address",
          "name": "msgSender",
          "type": "address"
        }
      ],
      "name": "OnlyRoleError",
      "type": "error"
    },
    {
      "anonymous": false,
      "inputs": [
        {
          "indexed": false,
          "internalType": "uint8",
          "name": "version",
          "type": "uint8"
        }
      ],
      "name": "Initialized",
      "type": "event"
    },
    {
      "anonymous": false,
      "inputs": [
        {
          "indexed": false,
          "internalType": "address",
          "name": "msg_sender",
          "type": "address"
        },
        {
          "indexed": false,
          "internalType": "uint256",
          "name": "donationAmount",
          "type": "uint256"
        }
      ],
      "name": "Participated",
      "type": "event"
    },
    {
      "anonymous": false,
      "inputs": [
        {
          "indexed": true,
          "internalType": "bytes32",
          "name": "role",
          "type": "bytes32"
        },
        {
          "indexed": true,
          "internalType": "bytes32",
          "name": "previousAdminRole",
          "type": "bytes32"
        },
        {
          "indexed": true,
          "internalType": "bytes32",
          "name": "newAdminRole",
          "type": "bytes32"
        }
      ],
      "name": "RoleAdminChanged",
      "type": "event"
    },
    {
      "anonymous": false,
      "inputs": [
        {
          "indexed": true,
          "internalType": "bytes32",
          "name": "role",
          "type": "bytes32"
        },
        {
          "indexed": true,
          "internalType": "address",
          "name": "account",
          "type": "address"
        },
        {
          "indexed": true,
          "internalType": "address",
          "name": "sender",
          "type": "address"
        }
      ],
      "name": "RoleGranted",
      "type": "event"
    },
    {
      "anonymous": false,
      "inputs": [
        {
          "indexed": true,
          "internalType": "bytes32",
          "name": "role",
          "type": "bytes32"
        },
        {
          "indexed": true,
          "internalType": "address",
          "name": "account",
          "type": "address"
        },
        {
          "indexed": true,
          "internalType": "address",
          "name": "sender",
          "type": "address"
        }
      ],
      "name": "RoleRevoked",
      "type": "event"
    },
    {
      "anonymous": false,
      "inputs": [
        {
          "indexed": false,
          "internalType": "uint64",
          "name": "_startTimestamp",
          "type": "uint64"
        },
        {
          "indexed": false,
          "internalType": "uint64",
          "name": "_deadlineTimestamp",
          "type": "uint64"
        },
        {
          "indexed": false,
          "internalType": "uint256",
          "name": "_donationGoalMin",
          "type": "uint256"
        },
        {
          "indexed": false,
          "internalType": "uint256",
          "name": "_donationGoalMax",
          "type": "uint256"
        },
        {
          "indexed": false,
          "internalType": "uint256",
          "name": "_minimumDonationUsd",
          "type": "uint256"
        },
        {
          "indexed": false,
          "internalType": "uint256",
          "name": "_maximumDonationUsd",
          "type": "uint256"
        },
        {
          "indexed": false,
          "internalType": "address",
          "name": "_donationToken",
          "type": "address"
        },
        {
          "indexed": false,
          "internalType": "uint64",
          "name": "_fullVestingSeconds",
          "type": "uint64"
        },
        {
          "indexed": false,
          "internalType": "uint64",
          "name": "_cliffSeconds",
          "type": "uint64"
        },
        {
          "indexed": false,
          "internalType": "uint64",
          "name": "_tgeUnlockRatio1e18",
          "type": "uint64"
        },
        {
          "indexed": false,
          "internalType": "uint64",
          "name": "_vestingFrequencySeconds",
          "type": "uint64"
        }
      ],
      "name": "SetDistribution",
      "type": "event"
    },
    {
      "inputs": [],
      "name": "ACCESS_CONTROL_SINGLETON",
      "outputs": [
        {
          "internalType": "contract IAccessControlUpgradeable",
          "name": "",
          "type": "address"
        }
      ],
      "stateMutability": "view",
      "type": "function"
    },
    {
      "inputs": [],
      "name": "ADMIN_ROLE",
      "outputs": [
        {
          "internalType": "bytes32",
          "name": "",
          "type": "bytes32"
        }
      ],
      "stateMutability": "view",
      "type": "function"
    },
    {
      "inputs": [],
      "name": "BONUS_CONTRACT",
      "outputs": [
        {
          "internalType": "address",
          "name": "",
          "type": "address"
        }
      ],
      "stateMutability": "view",
      "type": "function"
    },
    {
      "inputs": [],
      "name": "COMMUNITY_ADMIN_ROLE",
      "outputs": [
        {
          "internalType": "bytes32",
          "name": "",
          "type": "bytes32"
        }
      ],
      "stateMutability": "view",
      "type": "function"
    },
    {
      "inputs": [],
      "name": "DAO_ROLE",
      "outputs": [
        {
          "internalType": "bytes32",
          "name": "",
          "type": "bytes32"
        }
      ],
      "stateMutability": "view",
      "type": "function"
    },
    {
      "inputs": [],
      "name": "DEFAULT_ADMIN_ROLE",
      "outputs": [
        {
          "internalType": "bytes32",
          "name": "",
          "type": "bytes32"
        }
      ],
      "stateMutability": "view",
      "type": "function"
    },
    {
      "inputs": [],
      "name": "SU_DAO",
      "outputs": [
        {
          "internalType": "address",
          "name": "",
          "type": "address"
        }
      ],
      "stateMutability": "view",
      "type": "function"
    },
    {
      "inputs": [],
      "name": "VE_ERC_20",
      "outputs": [
        {
          "internalType": "address",
          "name": "",
          "type": "address"
        }
      ],
      "stateMutability": "view",
      "type": "function"
    },
    {
      "inputs": [
        {
          "internalType": "contract IERC20Upgradeable",
          "name": "token",
          "type": "address"
        }
      ],
      "name": "adminWithdraw",
      "outputs": [],
      "stateMutability": "nonpayable",
      "type": "function"
    },
    {
      "inputs": [
        {
          "internalType": "uint256",
          "name": "x",
          "type": "uint256"
        }
      ],
      "name": "antiderivativeOfBondingCurvePolynomial1e18At",
      "outputs": [
        {
          "internalType": "uint256",
          "name": "",
          "type": "uint256"
        }
      ],
      "stateMutability": "view",
      "type": "function"
    },
    {
      "inputs": [
        {
          "internalType": "uint256",
          "name": "x",
          "type": "uint256"
        }
      ],
      "name": "bondingCurvePolynomial1e18At",
      "outputs": [
        {
          "internalType": "uint256",
          "name": "",
          "type": "uint256"
        }
      ],
      "stateMutability": "view",
      "type": "function"
    },
    {
      "inputs": [
        {
          "internalType": "address",
          "name": "account",
          "type": "address"
        }
      ],
      "name": "getAccessNftsForUser",
      "outputs": [
        {
          "internalType": "address[]",
          "name": "",
          "type": "address[]"
        }
      ],
      "stateMutability": "nonpayable",
      "type": "function"
    },
    {
      "inputs": [
        {
          "internalType": "uint256",
          "name": "donationAmount",
          "type": "uint256"
        }
      ],
      "name": "getBondingCurveRewardAmountFromDonation",
      "outputs": [
        {
          "internalType": "uint256",
          "name": "",
          "type": "uint256"
        }
      ],
      "stateMutability": "view",
      "type": "function"
    },
    {
      "inputs": [],
      "name": "getDistributorData",
      "outputs": [
        {
          "internalType": "uint64",
          "name": "startTimestamp",
          "type": "uint64"
        },
        {
          "internalType": "uint64",
          "name": "deadlineTimestamp",
          "type": "uint64"
        },
        {
          "internalType": "uint256",
          "name": "minimumDonationUsd",
          "type": "uint256"
        },
        {
          "internalType": "uint256",
          "name": "maximumDonationUsd",
          "type": "uint256"
        },
        {
          "internalType": "uint256",
          "name": "donationGoalMin",
          "type": "uint256"
        },
        {
          "internalType": "uint256",
          "name": "donationGoalMax",
          "type": "uint256"
        },
        {
          "internalType": "uint256",
          "name": "totalDonations",
          "type": "uint256"
        },
        {
          "internalType": "address",
          "name": "donationToken",
          "type": "address"
        },
        {
          "internalType": "uint64",
          "name": "fullVestingSeconds",
          "type": "uint64"
        },
        {
          "internalType": "uint64",
          "name": "cliffSeconds",
          "type": "uint64"
        },
        {
          "internalType": "uint64",
          "name": "tgeUnlockRatio1e18",
          "type": "uint64"
        },
        {
          "internalType": "uint64",
          "name": "vestingFrequencySeconds",
          "type": "uint64"
        }
      ],
      "stateMutability": "nonpayable",
      "type": "function"
    },
    {
      "inputs": [
        {
          "internalType": "address",
          "name": "user",
          "type": "address"
        },
        {
          "internalType": "address",
          "name": "accessNft",
          "type": "address"
        }
      ],
      "name": "getMaximumDonationAmount",
      "outputs": [
        {
          "internalType": "uint256",
          "name": "",
          "type": "uint256"
        }
      ],
      "stateMutability": "view",
      "type": "function"
    },
    {
      "inputs": [
        {
          "internalType": "bytes32",
          "name": "role",
          "type": "bytes32"
        }
      ],
      "name": "getRoleAdmin",
      "outputs": [
        {
          "internalType": "bytes32",
          "name": "",
          "type": "bytes32"
        }
      ],
      "stateMutability": "view",
      "type": "function"
    },
    {
      "inputs": [
        {
          "internalType": "bytes32",
          "name": "role",
          "type": "bytes32"
        },
        {
          "internalType": "address",
          "name": "account",
          "type": "address"
        }
      ],
      "name": "grantRole",
      "outputs": [],
      "stateMutability": "nonpayable",
      "type": "function"
    },
    {
      "inputs": [
        {
          "internalType": "bytes32",
          "name": "role",
          "type": "bytes32"
        },
        {
          "internalType": "address",
          "name": "account",
          "type": "address"
        }
      ],
      "name": "hasRole",
      "outputs": [
        {
          "internalType": "bool",
          "name": "",
          "type": "bool"
        }
      ],
      "stateMutability": "view",
      "type": "function"
    },
    {
      "inputs": [
        {
          "internalType": "address",
          "name": "_accessControlSingleton",
          "type": "address"
        },
        {
          "internalType": "address",
          "name": "_suDAO",
          "type": "address"
        },
        {
          "internalType": "address",
          "name": "_veErc20",
          "type": "address"
        },
        {
          "internalType": "address",
          "name": "_bonusContract",
          "type": "address"
        }
      ],
      "name": "initialize",
      "outputs": [],
      "stateMutability": "nonpayable",
      "type": "function"
    },
    {
      "inputs": [
        {
          "internalType": "uint256",
          "name": "donationAmount",
          "type": "uint256"
        },
        {
          "internalType": "address",
          "name": "accessNft",
          "type": "address"
        }
      ],
      "name": "participate",
      "outputs": [],
      "stateMutability": "payable",
      "type": "function"
    },
    {
      "inputs": [
        {
          "internalType": "bytes32",
          "name": "role",
          "type": "bytes32"
        },
        {
          "internalType": "address",
          "name": "account",
          "type": "address"
        }
      ],
      "name": "renounceRole",
      "outputs": [],
      "stateMutability": "nonpayable",
      "type": "function"
    },
    {
      "inputs": [
        {
          "internalType": "bytes32",
          "name": "role",
          "type": "bytes32"
        },
        {
          "internalType": "address",
          "name": "account",
          "type": "address"
        }
      ],
      "name": "revokeRole",
      "outputs": [],
      "stateMutability": "nonpayable",
      "type": "function"
    },
    {
      "inputs": [
        {
          "internalType": "uint64",
          "name": "_startTimestamp",
          "type": "uint64"
        },
        {
          "internalType": "uint64",
          "name": "_deadlineTimestamp",
          "type": "uint64"
        },
        {
          "internalType": "uint256",
          "name": "_donationGoalMin",
          "type": "uint256"
        },
        {
          "internalType": "uint256",
          "name": "_donationGoalMax",
          "type": "uint256"
        },
        {
          "internalType": "uint256",
          "name": "_minimumDonationUsd",
          "type": "uint256"
        },
        {
          "internalType": "uint256",
          "name": "_maximumDonationUsd",
          "type": "uint256"
        },
        {
          "internalType": "address",
          "name": "_donationToken",
          "type": "address"
        },
        {
          "internalType": "uint64",
          "name": "_fullVestingSeconds",
          "type": "uint64"
        },
        {
          "internalType": "uint64",
          "name": "_cliffSeconds",
          "type": "uint64"
        },
        {
          "internalType": "uint64",
          "name": "_tgeUnlockRatio1e18",
          "type": "uint64"
        },
        {
          "internalType": "uint64",
          "name": "_vestingFrequencySeconds",
          "type": "uint64"
        }
      ],
      "name": "setDistributionInfo",
      "outputs": [],
      "stateMutability": "nonpayable",
      "type": "function"
    },
    {
      "inputs": [
        {
          "internalType": "address",
          "name": "accessNft",
          "type": "address"
        },
        {
          "internalType": "bool",
          "name": "valid",
          "type": "bool"
        }
      ],
      "name": "setNftAccess",
      "outputs": [],
      "stateMutability": "nonpayable",
      "type": "function"
    },
    {
      "inputs": [
        {
          "internalType": "bytes4",
          "name": "interfaceId",
          "type": "bytes4"
        }
      ],
      "name": "supportsInterface",
      "outputs": [
        {
          "internalType": "bool",
          "name": "",
          "type": "bool"
        }
      ],
      "stateMutability": "view",
      "type": "function"
    },
    {
      "inputs": [],
      "name": "takeDonationBack",
      "outputs": [],
      "stateMutability": "nonpayable",
      "type": "function"
    },
    {
      "inputs": [
        {
          "internalType": "address",
          "name": "newOwner",
          "type": "address"
        }
      ],
      "name": "transferOwnership",
      "outputs": [],
      "stateMutability": "nonpayable",
      "type": "function"
    },
    {
      "stateMutability": "payable",
      "type": "receive"
    }
  ],
  "numDeployments": 1,
  "solcInputHash": "68ece741a858e2b4b6dff04cbd8590ba",
  "bytecode": "0x608060405234801561001057600080fd5b50614410806100206000396000f3fe6080604052600436106101a05760003560e01c80639954a9bc116100ec578063dc4eff7e1161008a578063f2fde38b11610064578063f2fde38b146105d1578063f4984460146105fa578063f8c8765e14610637578063fee1d57c14610660576101a7565b8063dc4eff7e14610564578063e9c265181461058f578063efb8f4fd146105ba576101a7565b8063a217fddf116100c6578063a217fddf146104bc578063a28835b6146104e7578063b5b8a68a14610510578063d547741f1461053b576101a7565b80639954a9bc146104195780639d0c6846146104425780639dbf79351461047f576101a7565b806336568abe116101595780635300c696116101335780635300c6961461035057806375b238fc1461038657806391d14854146103b157806395367f89146103ee576101a7565b806336568abe146102bf578063445c4c8d146102e857806347b8ce3f14610313576101a7565b806301ffc9a7146101ac57806303ee9f22146101e957806313b1864014610214578063248a9ca3146102305780632f2ff15d1461026d578063303c1c8d14610296576101a7565b366101a757005b600080fd5b3480156101b857600080fd5b506101d360048036038101906101ce9190612c0e565b61069d565b6040516101e09190612c56565b60405180910390f35b3480156101f557600080fd5b506101fe610707565b60405161020b9190612cf0565b60405180910390f35b61022e60048036038101906102299190612d7f565b61072d565b005b34801561023c57600080fd5b5061025760048036038101906102529190612df5565b610e64565b6040516102649190612e31565b60405180910390f35b34801561027957600080fd5b50610294600480360381019061028f9190612e4c565b610f08565b005b3480156102a257600080fd5b506102bd60048036038101906102b89190612ecc565b610ff2565b005b3480156102cb57600080fd5b506102e660048036038101906102e19190612e4c565b611402565b005b3480156102f457600080fd5b506102fd611495565b60405161030a9190612fcf565b60405180910390f35b34801561031f57600080fd5b5061033a60048036038101906103359190612fea565b6114bb565b6040516103479190613026565b60405180910390f35b34801561035c57600080fd5b5061036561154f565b60405161037d9c9b9a99989796959493929190613050565b60405180910390f35b34801561039257600080fd5b5061039b61156e565b6040516103a89190612e31565b60405180910390f35b3480156103bd57600080fd5b506103d860048036038101906103d39190612e4c565b611592565b6040516103e59190612c56565b60405180910390f35b3480156103fa57600080fd5b50610403611639565b6040516104109190612e31565b60405180910390f35b34801561042557600080fd5b50610440600480360381019061043b9190613136565b61165d565b005b34801561044e57600080fd5b5061046960048036038101906104649190613176565b611706565b6040516104769190613026565b60405180910390f35b34801561048b57600080fd5b506104a660048036038101906104a191906131b6565b611800565b6040516104b391906132a1565b60405180910390f35b3480156104c857600080fd5b506104d1611992565b6040516104de9190612e31565b60405180910390f35b3480156104f357600080fd5b5061050e60048036038101906105099190613301565b611999565b005b34801561051c57600080fd5b50610525611b13565b6040516105329190612fcf565b60405180910390f35b34801561054757600080fd5b50610562600480360381019061055d9190612e4c565b611b39565b005b34801561057057600080fd5b50610579611c23565b6040516105869190612fcf565b60405180910390f35b34801561059b57600080fd5b506105a4611c49565b6040516105b19190612e31565b60405180910390f35b3480156105c657600080fd5b506105cf611c50565b005b3480156105dd57600080fd5b506105f860048036038101906105f391906131b6565b611ec6565b005b34801561060657600080fd5b50610621600480360381019061061c9190612fea565b6120a6565b60405161062e9190613026565b60405180910390f35b34801561064357600080fd5b5061065e6004803603810190610659919061332e565b61213d565b005b34801561066c57600080fd5b5061068760048036038101906106829190612fea565b6123e2565b6040516106949190613026565b60405180910390f35b60007f7965db0b000000000000000000000000000000000000000000000000000000007bffffffffffffffffffffffffffffffffffffffffffffffffffffffff1916827bffffffffffffffffffffffffffffffffffffffffffffffffffffffff1916149050919050565b600060029054906101000a900473ffffffffffffffffffffffffffffffffffffffff1681565b6000603a5403610769576040517f76d9f52e00000000000000000000000000000000000000000000000000000000815260040160405180910390fd5b603460149054906101000a900467ffffffffffffffff1667ffffffffffffffff164210806107b6575042603560009054906101000a900467ffffffffffffffff1667ffffffffffffffff16105b156107ed576040517fd3af728300000000000000000000000000000000000000000000000000000000815260040160405180910390fd5b61080181603f6124c590919063ffffffff16565b61084257806040517f7f2e188c0000000000000000000000000000000000000000000000000000000081526004016108399190612fcf565b60405180910390fd5b60008173ffffffffffffffffffffffffffffffffffffffff166370a08231336040518263ffffffff1660e01b815260040161087d9190612fcf565b602060405180830381865afa15801561089a573d6000803e3d6000fd5b505050506040513d601f19601f820116820180604052508101906108be91906133aa565b036109025733816040517f8afa396a0000000000000000000000000000000000000000000000000000000081526004016108f99291906133d7565b60405180910390fd5b6036548211610946576040517f08c379a000000000000000000000000000000000000000000000000000000000815260040161093d90613483565b60405180910390fd5b6000603460009054906101000a900473ffffffffffffffffffffffffffffffffffffffff1673ffffffffffffffffffffffffffffffffffffffff16630e022923336040518263ffffffff1660e01b81526004016109a39190612fcf565b602060405180830381865afa1580156109c0573d6000803e3d6000fd5b505050506040513d601f19601f820116820180604052508101906109e491906133aa565b905060008082146109f557816109f9565b6037545b90508084603b60003373ffffffffffffffffffffffffffffffffffffffff1673ffffffffffffffffffffffffffffffffffffffff16815260200190815260200160002054610a4791906134d2565b10610a87576040517f08c379a0000000000000000000000000000000000000000000000000000000008152600401610a7e9061359a565b60405180910390fd5b6000603460009054906101000a900473ffffffffffffffffffffffffffffffffffffffff1673ffffffffffffffffffffffffffffffffffffffff166306f2791a336040518263ffffffff1660e01b8152600401610ae49190612fcf565b602060405180830381865afa158015610b01573d6000803e3d6000fd5b505050506040513d601f19601f82011682018060405250810190610b2591906133aa565b90506000670de0b6b3a764000082670de0b6b3a7640000610b4691906134d2565b610b4f886123e2565b610b5991906135ba565b610b639190613643565b9050610bb4333088603d60009054906101000a900473ffffffffffffffffffffffffffffffffffffffff1673ffffffffffffffffffffffffffffffffffffffff166124f5909392919063ffffffff16565b85603c54610bc291906134d2565b603c8190555085603b60003373ffffffffffffffffffffffffffffffffffffffff1673ffffffffffffffffffffffffffffffffffffffff16815260200190815260200160002054610c1391906134d2565b603b60003373ffffffffffffffffffffffffffffffffffffffff1673ffffffffffffffffffffffffffffffffffffffff1681526020019081526020016000208190555080603360009054906101000a900473ffffffffffffffffffffffffffffffffffffffff1673ffffffffffffffffffffffffffffffffffffffff166370a08231306040518263ffffffff1660e01b8152600401610cb29190612fcf565b602060405180830381865afa158015610ccf573d6000803e3d6000fd5b505050506040513d601f19601f82011682018060405250810190610cf391906133aa565b1015610d34576040517f08c379a0000000000000000000000000000000000000000000000000000000008152600401610d2b906136c0565b60405180910390fd5b603260009054906101000a900473ffffffffffffffffffffffffffffffffffffffff1673ffffffffffffffffffffffffffffffffffffffff166393a56edc3383603d60149054906101000a900467ffffffffffffffff16603e60009054906101000a900467ffffffffffffffff16603e60089054906101000a900467ffffffffffffffff16603e60109054906101000a900467ffffffffffffffff166040518763ffffffff1660e01b8152600401610df196959493929190613711565b600060405180830381600087803b158015610e0b57600080fd5b505af1158015610e1f573d6000803e3d6000fd5b505050507fb198f199c43cc078ad46e5a5fabe03eba401f7417816c86af0bd2e7345c995063387604051610e54929190613772565b60405180910390a1505050505050565b60008060029054906101000a900473ffffffffffffffffffffffffffffffffffffffff1673ffffffffffffffffffffffffffffffffffffffff1663248a9ca3836040518263ffffffff1660e01b8152600401610ec09190612e31565b602060405180830381865afa158015610edd573d6000803e3d6000fd5b505050506040513d601f19601f82011682018060405250810190610f0191906137b0565b9050919050565b610f1182610e64565b610f1b8133611592565b610f5e5780336040517f37c2e343000000000000000000000000000000000000000000000000000000008152600401610f559291906137dd565b60405180910390fd5b600060029054906101000a900473ffffffffffffffffffffffffffffffffffffffff1673ffffffffffffffffffffffffffffffffffffffff16632f2ff15d84846040518363ffffffff1660e01b8152600401610fbb9291906137dd565b600060405180830381600087803b158015610fd557600080fd5b505af1158015610fe9573d6000803e3d6000fd5b50505050505050565b7fa49807205ce4d355092ef5a8a18f56e8913cf4a201fbe287825b095693c2177561101d8133611592565b6110605780336040517f37c2e3430000000000000000000000000000000000000000000000000000000081526004016110579291906137dd565b60405180910390fd5b8a67ffffffffffffffff168c67ffffffffffffffff16106110b6576040517f08c379a00000000000000000000000000000000000000000000000000000000081526004016110ad90613878565b60405180910390fd5b888a11156110f9576040517f08c379a00000000000000000000000000000000000000000000000000000000081526004016110f09061390a565b60405180910390fd5b8688111561113c576040517f08c379a00000000000000000000000000000000000000000000000000000000081526004016111339061399c565b60405180910390fd5b600073ffffffffffffffffffffffffffffffffffffffff168673ffffffffffffffffffffffffffffffffffffffff16036111ab576040517f08c379a00000000000000000000000000000000000000000000000000000000081526004016111a290613a08565b60405180910390fd5b8467ffffffffffffffff168467ffffffffffffffff1610611201576040517f08c379a00000000000000000000000000000000000000000000000000000000081526004016111f890613a74565b60405180910390fd5b670de0b6b3a76400008367ffffffffffffffff161115611256576040517f08c379a000000000000000000000000000000000000000000000000000000000815260040161124d90613b06565b60405180910390fd5b8b603460146101000a81548167ffffffffffffffff021916908367ffffffffffffffff1602179055508a603560006101000a81548167ffffffffffffffff021916908367ffffffffffffffff1602179055508960398190555088603a81905550876036819055508660378190555085603d60006101000a81548173ffffffffffffffffffffffffffffffffffffffff021916908373ffffffffffffffffffffffffffffffffffffffff16021790555084603d60146101000a81548167ffffffffffffffff021916908367ffffffffffffffff16021790555083603e60006101000a81548167ffffffffffffffff021916908367ffffffffffffffff16021790555082603e60086101000a81548167ffffffffffffffff021916908367ffffffffffffffff16021790555081603e60106101000a81548167ffffffffffffffff021916908367ffffffffffffffff1602179055507fe81f01d972e8c23fba63a5e8b84c850255cc5b3427763906e1346ad28f1556a38c8c8c8c8c8c8c8c8c8c8c6040516113ec9b9a99989796959493929190613b26565b60405180910390a1505050505050505050505050565b600060029054906101000a900473ffffffffffffffffffffffffffffffffffffffff1673ffffffffffffffffffffffffffffffffffffffff166336568abe83836040518363ffffffff1660e01b815260040161145f9291906137dd565b600060405180830381600087803b15801561147957600080fd5b505af115801561148d573d6000803e3d6000fd5b505050505050565b603460009054906101000a900473ffffffffffffffffffffffffffffffffffffffff1681565b60008060388054905090506000600190506000805b8381101561154357670de0b6b3a764000083603883815481106114f6576114f5613bd1565b5b906000526020600020015461150b91906135ba565b6115159190613643565b8261152091906134d2565b9150858361152e91906135ba565b9250808061153b90613c00565b9150506114d0565b50809350505050919050565b6000806000806000806000806000806000809192939495969798999a9b565b7fa49807205ce4d355092ef5a8a18f56e8913cf4a201fbe287825b095693c2177581565b60008060029054906101000a900473ffffffffffffffffffffffffffffffffffffffff1673ffffffffffffffffffffffffffffffffffffffff166391d1485484846040518363ffffffff1660e01b81526004016115f09291906137dd565b602060405180830381865afa15801561160d573d6000803e3d6000fd5b505050506040513d601f19601f820116820180604052508101906116319190613c5d565b905092915050565b7f0a7cc066f24e107ff77c42c8a1bdaf1a5f775fa4a74e45530aaf9c866368f65381565b7fa49807205ce4d355092ef5a8a18f56e8913cf4a201fbe287825b095693c217756116888133611592565b6116cb5780336040517f37c2e3430000000000000000000000000000000000000000000000000000000081526004016116c29291906137dd565b60405180910390fd5b81156116eb576116e583603f61257e90919063ffffffff16565b50611701565b6116ff83603f6125ae90919063ffffffff16565b505b505050565b6000808273ffffffffffffffffffffffffffffffffffffffff166370a08231336040518263ffffffff1660e01b81526004016117429190612fcf565b602060405180830381865afa15801561175f573d6000803e3d6000fd5b505050506040513d601f19601f8201168201806040525081019061178391906133aa565b11156117f5576117ee603b60008573ffffffffffffffffffffffffffffffffffffffff1673ffffffffffffffffffffffffffffffffffffffff168152602001908152602001600020546037546117d99190613c8a565b603c54603a546117e99190613c8a565b6125de565b90506117fa565b600090505b92915050565b6060600061180e603f6125f7565b905060008151905060008167ffffffffffffffff81111561183257611831613cbe565b5b6040519080825280602002602001820160405280156118605781602001602082028036833780820191505090505b50905060005b8281101561198657600084828151811061188357611882613bd1565b5b602002602001015173ffffffffffffffffffffffffffffffffffffffff166370a08231336040518263ffffffff1660e01b81526004016118c39190612fcf565b602060405180830381865afa1580156118e0573d6000803e3d6000fd5b505050506040513d601f19601f8201168201806040525081019061190491906133aa565b11156119735783818151811061191d5761191c613bd1565b5b602002602001015182828151811061193857611937613bd1565b5b602002602001019073ffffffffffffffffffffffffffffffffffffffff16908173ffffffffffffffffffffffffffffffffffffffff16815250505b808061197e90613c00565b915050611866565b50809350505050919050565b6000801b81565b6000801b6119a78133611592565b6119ea5780336040517f37c2e3430000000000000000000000000000000000000000000000000000000081526004016119e19291906137dd565b60405180910390fd5b600073ffffffffffffffffffffffffffffffffffffffff168273ffffffffffffffffffffffffffffffffffffffff1603611a6a573373ffffffffffffffffffffffffffffffffffffffff166108fc479081150290604051600060405180830381858888f19350505050158015611a64573d6000803e3d6000fd5b50611b0f565b611b0e338373ffffffffffffffffffffffffffffffffffffffff166370a08231306040518263ffffffff1660e01b8152600401611aa79190612fcf565b602060405180830381865afa158015611ac4573d6000803e3d6000fd5b505050506040513d601f19601f82011682018060405250810190611ae891906133aa565b8473ffffffffffffffffffffffffffffffffffffffff166126189092919063ffffffff16565b5b5050565b603260009054906101000a900473ffffffffffffffffffffffffffffffffffffffff1681565b611b4282610e64565b611b4c8133611592565b611b8f5780336040517f37c2e343000000000000000000000000000000000000000000000000000000008152600401611b869291906137dd565b60405180910390fd5b600060029054906101000a900473ffffffffffffffffffffffffffffffffffffffff1673ffffffffffffffffffffffffffffffffffffffff1663d547741f84846040518363ffffffff1660e01b8152600401611bec9291906137dd565b600060405180830381600087803b158015611c0657600080fd5b505af1158015611c1a573d6000803e3d6000fd5b50505050505050565b603360009054906101000a900473ffffffffffffffffffffffffffffffffffffffff1681565b6000801b81565b603560009054906101000a900467ffffffffffffffff1667ffffffffffffffff16421015611cb3576040517f08c379a0000000000000000000000000000000000000000000000000000000008152600401611caa90613d39565b60405180910390fd5b603954603c5410611cf9576040517f08c379a0000000000000000000000000000000000000000000000000000000008152600401611cf090613da5565b60405180910390fd5b6000603260009054906101000a900473ffffffffffffffffffffffffffffffffffffffff1673ffffffffffffffffffffffffffffffffffffffff166370a08231336040518263ffffffff1660e01b8152600401611d569190612fcf565b602060405180830381865afa158015611d73573d6000803e3d6000fd5b505050506040513d601f19601f82011682018060405250810190611d9791906133aa565b14611dd7576040517f08c379a0000000000000000000000000000000000000000000000000000000008152600401611dce90613e37565b60405180910390fd5b6000603b60003373ffffffffffffffffffffffffffffffffffffffff1673ffffffffffffffffffffffffffffffffffffffff1681526020019081526020016000205490506000603b60003373ffffffffffffffffffffffffffffffffffffffff1673ffffffffffffffffffffffffffffffffffffffff1681526020019081526020016000208190555080603c54611e6e9190613c8a565b603c81905550611ec3303383603d60009054906101000a900473ffffffffffffffffffffffffffffffffffffffff1673ffffffffffffffffffffffffffffffffffffffff166124f5909392919063ffffffff16565b50565b600073ffffffffffffffffffffffffffffffffffffffff168173ffffffffffffffffffffffffffffffffffffffff1603611f35576040517f08c379a0000000000000000000000000000000000000000000000000000000008152600401611f2c90613ec9565b60405180910390fd5b611f426000801b33611592565b611f81576040517f08c379a0000000000000000000000000000000000000000000000000000000008152600401611f7890613f35565b60405180910390fd5b611fab7fa49807205ce4d355092ef5a8a18f56e8913cf4a201fbe287825b095693c2177533611592565b1561200557611fda7fa49807205ce4d355092ef5a8a18f56e8913cf4a201fbe287825b095693c2177582610f08565b6120047fa49807205ce4d355092ef5a8a18f56e8913cf4a201fbe287825b095693c2177533611b39565b5b61202f7f0a7cc066f24e107ff77c42c8a1bdaf1a5f775fa4a74e45530aaf9c866368f65333611592565b156120895761205e7f0a7cc066f24e107ff77c42c8a1bdaf1a5f775fa4a74e45530aaf9c866368f65382610f08565b6120887f0a7cc066f24e107ff77c42c8a1bdaf1a5f775fa4a74e45530aaf9c866368f65333611b39565b5b6120966000801b82610f08565b6120a36000801b33611b39565b50565b600080603880549050905060008390506000805b83811015612131576001816120cf91906134d2565b83603883815481106120e4576120e3613bd1565b5b90600052602060002001546120f991906135ba565b6121039190613643565b8261210e91906134d2565b9150858361211c91906135ba565b9250808061212990613c00565b9150506120ba565b50809350505050919050565b60008060019054906101000a900460ff1615905080801561216e5750600160008054906101000a900460ff1660ff16105b8061219b575061217d3061269e565b15801561219a5750600160008054906101000a900460ff1660ff16145b5b6121da576040517f08c379a00000000000000000000000000000000000000000000000000000000081526004016121d190613fc7565b60405180910390fd5b60016000806101000a81548160ff021916908360ff1602179055508015612217576001600060016101000a81548160ff0219169083151502179055505b612220856126c1565b83603360006101000a81548173ffffffffffffffffffffffffffffffffffffffff021916908373ffffffffffffffffffffffffffffffffffffffff16021790555082603260006101000a81548173ffffffffffffffffffffffffffffffffffffffff021916908373ffffffffffffffffffffffffffffffffffffffff16021790555081603460006101000a81548173ffffffffffffffffffffffffffffffffffffffff021916908373ffffffffffffffffffffffffffffffffffffffff1602179055508373ffffffffffffffffffffffffffffffffffffffff1663095ea7b3847fffffffffffffffffffffffffffffffffffffffffffffffffffffffffffffffff6040518363ffffffff1660e01b815260040161233e929190613772565b6020604051808303816000875af115801561235d573d6000803e3d6000fd5b505050506040513d601f19601f820116820180604052508101906123819190613c5d565b5080156123db5760008060016101000a81548160ff0219169083151502179055507f7f26b83ff96e1f2b6a682f133852f6798a09c465da95921460cefb384740249860016040516123d2919061402f565b60405180910390a15b5050505050565b6000806123f0603c546120a6565b9050600061240a84603c5461240591906134d2565b6120a6565b90506124bc603360009054906101000a900473ffffffffffffffffffffffffffffffffffffffff1673ffffffffffffffffffffffffffffffffffffffff166370a08231306040518263ffffffff1660e01b815260040161246a9190612fcf565b602060405180830381865afa158015612487573d6000803e3d6000fd5b505050506040513d601f19601f820116820180604052508101906124ab91906133aa565b83836124b79190613c8a565b6125de565b92505050919050565b60006124ed836000018373ffffffffffffffffffffffffffffffffffffffff1660001b612754565b905092915050565b612578846323b872dd60e01b8585856040516024016125169392919061404a565b604051602081830303815290604052907bffffffffffffffffffffffffffffffffffffffffffffffffffffffff19166020820180517bffffffffffffffffffffffffffffffffffffffffffffffffffffffff8381831617835250505050612777565b50505050565b60006125a6836000018373ffffffffffffffffffffffffffffffffffffffff1660001b61283e565b905092915050565b60006125d6836000018373ffffffffffffffffffffffffffffffffffffffff1660001b6128ae565b905092915050565b60008183106125ed57816125ef565b825b905092915050565b60606000612607836000016129c2565b905060608190508092505050919050565b6126998363a9059cbb60e01b8484604051602401612637929190613772565b604051602081830303815290604052907bffffffffffffffffffffffffffffffffffffffffffffffffffffffff19166020820180517bffffffffffffffffffffffffffffffffffffffffffffffffffffffff8381831617835250505050612777565b505050565b6000808273ffffffffffffffffffffffffffffffffffffffff163b119050919050565b600060019054906101000a900460ff16612710576040517f08c379a0000000000000000000000000000000000000000000000000000000008152600401612707906140f3565b60405180910390fd5b80600060026101000a81548173ffffffffffffffffffffffffffffffffffffffff021916908373ffffffffffffffffffffffffffffffffffffffff16021790555050565b600080836001016000848152602001908152602001600020541415905092915050565b60006127d9826040518060400160405280602081526020017f5361666545524332303a206c6f772d6c6576656c2063616c6c206661696c65648152508573ffffffffffffffffffffffffffffffffffffffff16612a1e9092919063ffffffff16565b905060008151111561283957808060200190518101906127f99190613c5d565b612838576040517f08c379a000000000000000000000000000000000000000000000000000000000815260040161282f90614185565b60405180910390fd5b5b505050565b600061284a8383612754565b6128a35782600001829080600181540180825580915050600190039060005260206000200160009091909190915055826000018054905083600101600084815260200190815260200160002081905550600190506128a8565b600090505b92915050565b600080836001016000848152602001908152602001600020549050600081146129b65760006001826128e09190613c8a565b90506000600186600001805490506128f89190613c8a565b905081811461296757600086600001828154811061291957612918613bd1565b5b906000526020600020015490508087600001848154811061293d5761293c613bd1565b5b90600052602060002001819055508387600101600083815260200190815260200160002081905550505b8560000180548061297b5761297a6141a5565b5b6001900381819060005260206000200160009055905585600101600086815260200190815260200160002060009055600193505050506129bc565b60009150505b92915050565b606081600001805480602002602001604051908101604052809291908181526020018280548015612a1257602002820191906000526020600020905b8154815260200190600101908083116129fe575b50505050509050919050565b6060612a2d8484600085612a36565b90509392505050565b606082471015612a7b576040517f08c379a0000000000000000000000000000000000000000000000000000000008152600401612a7290614246565b60405180910390fd5b612a848561269e565b612ac3576040517f08c379a0000000000000000000000000000000000000000000000000000000008152600401612aba906142b2565b60405180910390fd5b6000808673ffffffffffffffffffffffffffffffffffffffff168587604051612aec919061434c565b60006040518083038185875af1925050503d8060008114612b29576040519150601f19603f3d011682016040523d82523d6000602084013e612b2e565b606091505b5091509150612b3e828286612b4a565b92505050949350505050565b60608315612b5a57829050612baa565b600083511115612b6d5782518084602001fd5b816040517f08c379a0000000000000000000000000000000000000000000000000000000008152600401612ba191906143b8565b60405180910390fd5b9392505050565b600080fd5b60007fffffffff0000000000000000000000000000000000000000000000000000000082169050919050565b612beb81612bb6565b8114612bf657600080fd5b50565b600081359050612c0881612be2565b92915050565b600060208284031215612c2457612c23612bb1565b5b6000612c3284828501612bf9565b91505092915050565b60008115159050919050565b612c5081612c3b565b82525050565b6000602082019050612c6b6000830184612c47565b92915050565b600073ffffffffffffffffffffffffffffffffffffffff82169050919050565b6000819050919050565b6000612cb6612cb1612cac84612c71565b612c91565b612c71565b9050919050565b6000612cc882612c9b565b9050919050565b6000612cda82612cbd565b9050919050565b612cea81612ccf565b82525050565b6000602082019050612d056000830184612ce1565b92915050565b6000819050919050565b612d1e81612d0b565b8114612d2957600080fd5b50565b600081359050612d3b81612d15565b92915050565b6000612d4c82612c71565b9050919050565b612d5c81612d41565b8114612d6757600080fd5b50565b600081359050612d7981612d53565b92915050565b60008060408385031215612d9657612d95612bb1565b5b6000612da485828601612d2c565b9250506020612db585828601612d6a565b9150509250929050565b6000819050919050565b612dd281612dbf565b8114612ddd57600080fd5b50565b600081359050612def81612dc9565b92915050565b600060208284031215612e0b57612e0a612bb1565b5b6000612e1984828501612de0565b91505092915050565b612e2b81612dbf565b82525050565b6000602082019050612e466000830184612e22565b92915050565b60008060408385031215612e6357612e62612bb1565b5b6000612e7185828601612de0565b9250506020612e8285828601612d6a565b9150509250929050565b600067ffffffffffffffff82169050919050565b612ea981612e8c565b8114612eb457600080fd5b50565b600081359050612ec681612ea0565b92915050565b60008060008060008060008060008060006101608c8e031215612ef257612ef1612bb1565b5b6000612f008e828f01612eb7565b9b50506020612f118e828f01612eb7565b9a50506040612f228e828f01612d2c565b9950506060612f338e828f01612d2c565b9850506080612f448e828f01612d2c565b97505060a0612f558e828f01612d2c565b96505060c0612f668e828f01612d6a565b95505060e0612f778e828f01612eb7565b945050610100612f898e828f01612eb7565b935050610120612f9b8e828f01612eb7565b925050610140612fad8e828f01612eb7565b9150509295989b509295989b9093969950565b612fc981612d41565b82525050565b6000602082019050612fe46000830184612fc0565b92915050565b60006020828403121561300057612fff612bb1565b5b600061300e84828501612d2c565b91505092915050565b61302081612d0b565b82525050565b600060208201905061303b6000830184613017565b92915050565b61304a81612e8c565b82525050565b600061018082019050613066600083018f613041565b613073602083018e613041565b613080604083018d613017565b61308d606083018c613017565b61309a608083018b613017565b6130a760a083018a613017565b6130b460c0830189613017565b6130c160e0830188612fc0565b6130cf610100830187613041565b6130dd610120830186613041565b6130eb610140830185613041565b6130f9610160830184613041565b9d9c50505050505050505050505050565b61311381612c3b565b811461311e57600080fd5b50565b6000813590506131308161310a565b92915050565b6000806040838503121561314d5761314c612bb1565b5b600061315b85828601612d6a565b925050602061316c85828601613121565b9150509250929050565b6000806040838503121561318d5761318c612bb1565b5b600061319b85828601612d6a565b92505060206131ac85828601612d6a565b9150509250929050565b6000602082840312156131cc576131cb612bb1565b5b60006131da84828501612d6a565b91505092915050565b600081519050919050565b600082825260208201905092915050565b6000819050602082019050919050565b61321881612d41565b82525050565b600061322a838361320f565b60208301905092915050565b6000602082019050919050565b600061324e826131e3565b61325881856131ee565b9350613263836131ff565b8060005b8381101561329457815161327b888261321e565b975061328683613236565b925050600181019050613267565b5085935050505092915050565b600060208201905081810360008301526132bb8184613243565b905092915050565b60006132ce82612d41565b9050919050565b6132de816132c3565b81146132e957600080fd5b50565b6000813590506132fb816132d5565b92915050565b60006020828403121561331757613316612bb1565b5b6000613325848285016132ec565b91505092915050565b6000806000806080858703121561334857613347612bb1565b5b600061335687828801612d6a565b945050602061336787828801612d6a565b935050604061337887828801612d6a565b925050606061338987828801612d6a565b91505092959194509250565b6000815190506133a481612d15565b92915050565b6000602082840312156133c0576133bf612bb1565b5b60006133ce84828501613395565b91505092915050565b60006040820190506133ec6000830185612fc0565b6133f96020830184612fc0565b9392505050565b600082825260208201905092915050565b7f596f757220646f6e6174696f6e2073686f756c6420626520677265617465722060008201527f7468616e206d696e696d756d20646f6e6174696f6e0000000000000000000000602082015250565b600061346d603583613400565b915061347882613411565b604082019050919050565b6000602082019050818103600083015261349c81613460565b9050919050565b7f4e487b7100000000000000000000000000000000000000000000000000000000600052601160045260246000fd5b60006134dd82612d0b565b91506134e883612d0b565b9250827fffffffffffffffffffffffffffffffffffffffffffffffffffffffffffffffff0382111561351d5761351c6134a3565b5b828201905092915050565b7f596f757220646f6e6174696f6e732073686f756c64206265206c65737320746860008201527f616e206d617820646f6e6174696f6e0000000000000000000000000000000000602082015250565b6000613584602f83613400565b915061358f82613528565b604082019050919050565b600060208201905081810360008301526135b381613577565b9050919050565b60006135c582612d0b565b91506135d083612d0b565b9250817fffffffffffffffffffffffffffffffffffffffffffffffffffffffffffffffff0483118215151615613609576136086134a3565b5b828202905092915050565b7f4e487b7100000000000000000000000000000000000000000000000000000000600052601260045260246000fd5b600061364e82612d0b565b915061365983612d0b565b92508261366957613668613614565b5b828204905092915050565b7f6e6f7420656e6f75676820726577617264206c65667400000000000000000000600082015250565b60006136aa601683613400565b91506136b582613674565b602082019050919050565b600060208201905081810360008301526136d98161369d565b9050919050565b60006136fb6136f66136f184612e8c565b612c91565b612d0b565b9050919050565b61370b816136e0565b82525050565b600060c0820190506137266000830189612fc0565b6137336020830188613017565b6137406040830187613702565b61374d6060830186613702565b61375a6080830185613702565b61376760a0830184613702565b979650505050505050565b60006040820190506137876000830185612fc0565b6137946020830184613017565b9392505050565b6000815190506137aa81612dc9565b92915050565b6000602082840312156137c6576137c5612bb1565b5b60006137d48482850161379b565b91505092915050565b60006040820190506137f26000830185612e22565b6137ff6020830184612fc0565b9392505050565b7f215f737461727454696d657374616d70203c205f646561646c696e6554696d6560008201527f7374616d70000000000000000000000000000000000000000000000000000000602082015250565b6000613862602583613400565b915061386d82613806565b604082019050919050565b6000602082019050818103600083015261389181613855565b9050919050565b7f21646f6e6174696f6e476f616c4d696e203c3d20646f6e6174696f6e476f616c60008201527f4d61780000000000000000000000000000000000000000000000000000000000602082015250565b60006138f4602383613400565b91506138ff82613898565b604082019050919050565b60006020820190508181036000830152613923816138e7565b9050919050565b7f216d696e696d756d446f6e6174696f6e557364203c3d206d6178696d756d446f60008201527f6e6174696f6e5573640000000000000000000000000000000000000000000000602082015250565b6000613986602983613400565b91506139918261392a565b604082019050919050565b600060208201905081810360008301526139b581613979565b9050919050565b7f646f6e6174696f6e546f6b656e206973206e756c6c0000000000000000000000600082015250565b60006139f2601583613400565b91506139fd826139bc565b602082019050919050565b60006020820190508181036000830152613a21816139e5565b9050919050565b7f21636c696666207365636f6e6473203c2076657374696e67207365636f6e6473600082015250565b6000613a5e602083613400565b9150613a6982613a28565b602082019050919050565b60006020820190508181036000830152613a8d81613a51565b9050919050565b7f746765556e6c6f636b526174696f2073686f756c64206265206c65737320746860008201527f616e203100000000000000000000000000000000000000000000000000000000602082015250565b6000613af0602483613400565b9150613afb82613a94565b604082019050919050565b60006020820190508181036000830152613b1f81613ae3565b9050919050565b600061016082019050613b3c600083018e613041565b613b49602083018d613041565b613b56604083018c613017565b613b63606083018b613017565b613b70608083018a613017565b613b7d60a0830189613017565b613b8a60c0830188612fc0565b613b9760e0830187613041565b613ba5610100830186613041565b613bb3610120830185613041565b613bc1610140830184613041565b9c9b505050505050505050505050565b7f4e487b7100000000000000000000000000000000000000000000000000000000600052603260045260246000fd5b6000613c0b82612d0b565b91507fffffffffffffffffffffffffffffffffffffffffffffffffffffffffffffffff8203613c3d57613c3c6134a3565b5b600182019050919050565b600081519050613c578161310a565b92915050565b600060208284031215613c7357613c72612bb1565b5b6000613c8184828501613c48565b91505092915050565b6000613c9582612d0b565b9150613ca083612d0b565b925082821015613cb357613cb26134a3565b5b828203905092915050565b7f4e487b7100000000000000000000000000000000000000000000000000000000600052604160045260246000fd5b7f50617274696369706174696f6e20686173206e6f742079657420656e64656400600082015250565b6000613d23601f83613400565b9150613d2e82613ced565b602082019050919050565b60006020820190508181036000830152613d5281613d16565b9050919050565b7f4d696e20676f616c207265616368656400000000000000000000000000000000600082015250565b6000613d8f601083613400565b9150613d9a82613d59565b602082019050919050565b60006020820190508181036000830152613dbe81613d82565b9050919050565b7f596f752073686f756c6420646f6e61746520616c6c20796f757220746f6b656e60008201527f7320696e20766545524332300000000000000000000000000000000000000000602082015250565b6000613e21602c83613400565b9150613e2c82613dc5565b604082019050919050565b60006020820190508181036000830152613e5081613e14565b9050919050565b7f4f776e61626c653a206e6577206f776e657220697320746865207a65726f206160008201527f6464726573730000000000000000000000000000000000000000000000000000602082015250565b6000613eb3602683613400565b9150613ebe82613e57565b604082019050919050565b60006020820190508181036000830152613ee281613ea6565b9050919050565b7f4f776e61626c653a2063616c6c6572206973206e6f7420746865206f776e6572600082015250565b6000613f1f602083613400565b9150613f2a82613ee9565b602082019050919050565b60006020820190508181036000830152613f4e81613f12565b9050919050565b7f496e697469616c697a61626c653a20636f6e747261637420697320616c72656160008201527f647920696e697469616c697a6564000000000000000000000000000000000000602082015250565b6000613fb1602e83613400565b9150613fbc82613f55565b604082019050919050565b60006020820190508181036000830152613fe081613fa4565b9050919050565b6000819050919050565b600060ff82169050919050565b600061401961401461400f84613fe7565b612c91565b613ff1565b9050919050565b61402981613ffe565b82525050565b60006020820190506140446000830184614020565b92915050565b600060608201905061405f6000830186612fc0565b61406c6020830185612fc0565b6140796040830184613017565b949350505050565b7f496e697469616c697a61626c653a20636f6e7472616374206973206e6f74206960008201527f6e697469616c697a696e67000000000000000000000000000000000000000000602082015250565b60006140dd602b83613400565b91506140e882614081565b604082019050919050565b6000602082019050818103600083015261410c816140d0565b9050919050565b7f5361666545524332303a204552433230206f7065726174696f6e20646964206e60008201527f6f74207375636365656400000000000000000000000000000000000000000000602082015250565b600061416f602a83613400565b915061417a82614113565b604082019050919050565b6000602082019050818103600083015261419e81614162565b9050919050565b7f4e487b7100000000000000000000000000000000000000000000000000000000600052603160045260246000fd5b7f416464726573733a20696e73756666696369656e742062616c616e636520666f60008201527f722063616c6c0000000000000000000000000000000000000000000000000000602082015250565b6000614230602683613400565b915061423b826141d4565b604082019050919050565b6000602082019050818103600083015261425f81614223565b9050919050565b7f416464726573733a2063616c6c20746f206e6f6e2d636f6e7472616374000000600082015250565b600061429c601d83613400565b91506142a782614266565b602082019050919050565b600060208201905081810360008301526142cb8161428f565b9050919050565b600081519050919050565b600081905092915050565b60005b838110156143065780820151818401526020810190506142eb565b83811115614315576000848401525b50505050565b6000614326826142d2565b61433081856142dd565b93506143408185602086016142e8565b80840191505092915050565b6000614358828461431b565b915081905092915050565b600081519050919050565b6000601f19601f8301169050919050565b600061438a82614363565b6143948185613400565b93506143a48185602086016142e8565b6143ad8161436e565b840191505092915050565b600060208201905081810360008301526143d2818461437f565b90509291505056fea26469706673582212208ca04a4a2640a6962d8bcf9d152cf8d6bb372e753699624351f648b7e88fdf0664736f6c634300080f0033",
  "devdoc": {
    "kind": "dev",
    "methods": {
      "adminWithdraw(address)": {
        "details": "The owner can't take away SuDAO token already distributed to users, because they are stored on timelockVault"
      },
      "getRoleAdmin(bytes32)": {
        "details": "Returns the admin role that controls `role`. See {grantRole} and {revokeRole}. To change a role's admin, use {AccessControl-_setRoleAdmin}."
      },
      "grantRole(bytes32,address)": {
        "details": "Grants `role` to `account`. If `account` had not been already granted `role`, emits a {RoleGranted} event. Requirements: - the caller must have ``role``'s admin role."
      },
      "hasRole(bytes32,address)": {
        "details": "Returns `true` if `account` has been granted `role`."
      },
      "renounceRole(bytes32,address)": {
        "details": "Revokes `role` from the calling account. Roles are often managed via {grantRole} and {revokeRole}: this function's purpose is to provide a mechanism for accounts to lose their privileges if they are compromised (such as when a trusted device is misplaced). If the calling account had been granted `role`, emits a {RoleRevoked} event. Requirements: - the caller must be `account`."
      },
      "revokeRole(bytes32,address)": {
        "details": "Revokes `role` from `account`. If `account` had been granted `role`, emits a {RoleRevoked} event. Requirements: - the caller must have ``role``'s admin role."
      },
      "supportsInterface(bytes4)": {
        "details": "Returns true if this contract implements the interface defined by `interfaceId`. See the corresponding https://eips.ethereum.org/EIPS/eip-165#how-interfaces-are-identified[EIP section] to learn more about how these ids are created. This function call must use less than 30 000 gas."
      },
      "transferOwnership(address)": {
        "details": "Transfers ownership of the contract to a new account (`newOwner`). Can only be called by the current owner."
      }
    },
    "stateVariables": {
      "__gap": {
        "details": "This empty reserved space is put in place to allow future versions to add new variables without shifting down storage in the inheritance chain. See https://docs.openzeppelin.com/contracts/4.x/upgradeable#storage_gaps"
      }
    },
    "title": "The contract that distribute suDAO tokens for community based on NFT membership",
    "version": 1
  },
  "userdoc": {
    "kind": "user",
    "methods": {
      "adminWithdraw(address)": {
        "notice": "The owner of the contact can take away tokens sent to the contract."
      },
      "getMaximumDonationAmount(address,address)": {
        "notice": "Get the max donation that user can do"
      },
      "participate(uint256,address)": {
        "notice": "notice Allows to participate for users with required NFT param donationAmount The amount of tokens specified in donationToken"
      },
      "setDistributionInfo(uint64,uint64,uint256,uint256,uint256,uint256,address,uint64,uint64,uint64,uint64)": {
        "notice": "The owner can set new or edit existing token distribution with no restrictions"
      }
    },
    "version": 1
  },
  "storageLayout": {
    "storage": [
      {
        "astId": 79,
        "contract": "contracts/distributions/TokenDistributor_v4.sol:TokenDistributor_v4",
        "label": "_initialized",
        "offset": 0,
        "slot": "0",
        "type": "t_uint8"
      },
      {
        "astId": 82,
        "contract": "contracts/distributions/TokenDistributor_v4.sol:TokenDistributor_v4",
        "label": "_initializing",
        "offset": 1,
        "slot": "0",
        "type": "t_bool"
      },
      {
        "astId": 2477,
        "contract": "contracts/distributions/TokenDistributor_v4.sol:TokenDistributor_v4",
        "label": "ACCESS_CONTROL_SINGLETON",
        "offset": 2,
        "slot": "0",
        "type": "t_contract(IAccessControlUpgradeable)72"
      },
      {
        "astId": 2700,
        "contract": "contracts/distributions/TokenDistributor_v4.sol:TokenDistributor_v4",
        "label": "__gap",
        "offset": 0,
        "slot": "1",
        "type": "t_array(t_uint256)49_storage"
      },
      {
        "astId": 2723,
        "contract": "contracts/distributions/TokenDistributor_v4.sol:TokenDistributor_v4",
        "label": "VE_ERC_20",
        "offset": 0,
        "slot": "50",
        "type": "t_address"
      },
      {
        "astId": 2725,
        "contract": "contracts/distributions/TokenDistributor_v4.sol:TokenDistributor_v4",
        "label": "SU_DAO",
        "offset": 0,
        "slot": "51",
        "type": "t_address"
      },
      {
        "astId": 2727,
        "contract": "contracts/distributions/TokenDistributor_v4.sol:TokenDistributor_v4",
        "label": "BONUS_CONTRACT",
        "offset": 0,
        "slot": "52",
        "type": "t_address"
      },
      {
        "astId": 2729,
        "contract": "contracts/distributions/TokenDistributor_v4.sol:TokenDistributor_v4",
        "label": "startTimestamp",
        "offset": 20,
        "slot": "52",
        "type": "t_uint64"
      },
      {
        "astId": 2731,
        "contract": "contracts/distributions/TokenDistributor_v4.sol:TokenDistributor_v4",
        "label": "deadlineTimestamp",
        "offset": 0,
        "slot": "53",
        "type": "t_uint64"
      },
      {
        "astId": 2733,
        "contract": "contracts/distributions/TokenDistributor_v4.sol:TokenDistributor_v4",
        "label": "minimumDonationUsd",
        "offset": 0,
        "slot": "54",
        "type": "t_uint256"
      },
      {
        "astId": 2735,
        "contract": "contracts/distributions/TokenDistributor_v4.sol:TokenDistributor_v4",
        "label": "maximumDonationUsd",
        "offset": 0,
        "slot": "55",
        "type": "t_uint256"
      },
      {
        "astId": 2738,
        "contract": "contracts/distributions/TokenDistributor_v4.sol:TokenDistributor_v4",
        "label": "bondingCurvePolynomial1e18",
        "offset": 0,
        "slot": "56",
        "type": "t_array(t_uint256)dyn_storage"
      },
      {
        "astId": 2740,
        "contract": "contracts/distributions/TokenDistributor_v4.sol:TokenDistributor_v4",
        "label": "donationGoalMin",
        "offset": 0,
        "slot": "57",
        "type": "t_uint256"
      },
      {
        "astId": 2742,
        "contract": "contracts/distributions/TokenDistributor_v4.sol:TokenDistributor_v4",
        "label": "donationGoalMax",
        "offset": 0,
        "slot": "58",
        "type": "t_uint256"
      },
      {
        "astId": 2746,
        "contract": "contracts/distributions/TokenDistributor_v4.sol:TokenDistributor_v4",
        "label": "donations",
        "offset": 0,
        "slot": "59",
        "type": "t_mapping(t_address,t_uint256)"
      },
      {
        "astId": 2748,
        "contract": "contracts/distributions/TokenDistributor_v4.sol:TokenDistributor_v4",
        "label": "totalDonations",
        "offset": 0,
        "slot": "60",
        "type": "t_uint256"
      },
      {
        "astId": 2750,
        "contract": "contracts/distributions/TokenDistributor_v4.sol:TokenDistributor_v4",
        "label": "donationToken",
        "offset": 0,
        "slot": "61",
        "type": "t_address"
      },
      {
        "astId": 2752,
        "contract": "contracts/distributions/TokenDistributor_v4.sol:TokenDistributor_v4",
        "label": "fullVestingSeconds",
        "offset": 20,
        "slot": "61",
        "type": "t_uint64"
      },
      {
        "astId": 2754,
        "contract": "contracts/distributions/TokenDistributor_v4.sol:TokenDistributor_v4",
        "label": "cliffSeconds",
        "offset": 0,
        "slot": "62",
        "type": "t_uint64"
      },
      {
        "astId": 2756,
        "contract": "contracts/distributions/TokenDistributor_v4.sol:TokenDistributor_v4",
        "label": "tgeUnlockRatio1e18",
        "offset": 8,
        "slot": "62",
        "type": "t_uint64"
      },
      {
        "astId": 2758,
        "contract": "contracts/distributions/TokenDistributor_v4.sol:TokenDistributor_v4",
        "label": "vestingFrequencySeconds",
        "offset": 16,
        "slot": "62",
        "type": "t_uint64"
      },
      {
        "astId": 2765,
        "contract": "contracts/distributions/TokenDistributor_v4.sol:TokenDistributor_v4",
        "label": "nftRequirement",
        "offset": 0,
        "slot": "63",
        "type": "t_struct(AddressSet)2157_storage"
      },
      {
        "astId": 3615,
        "contract": "contracts/distributions/TokenDistributor_v4.sol:TokenDistributor_v4",
        "label": "__gap",
        "offset": 0,
        "slot": "65",
        "type": "t_array(t_uint256)49_storage"
      }
    ],
    "types": {
      "t_address": {
        "encoding": "inplace",
        "label": "address",
        "numberOfBytes": "20"
      },
      "t_array(t_bytes32)dyn_storage": {
        "base": "t_bytes32",
        "encoding": "dynamic_array",
        "label": "bytes32[]",
        "numberOfBytes": "32"
      },
      "t_array(t_uint256)49_storage": {
        "base": "t_uint256",
        "encoding": "inplace",
        "label": "uint256[49]",
        "numberOfBytes": "1568"
      },
      "t_array(t_uint256)dyn_storage": {
        "base": "t_uint256",
        "encoding": "dynamic_array",
        "label": "uint256[]",
        "numberOfBytes": "32"
      },
      "t_bool": {
        "encoding": "inplace",
        "label": "bool",
        "numberOfBytes": "1"
      },
      "t_bytes32": {
        "encoding": "inplace",
        "label": "bytes32",
        "numberOfBytes": "32"
      },
      "t_contract(IAccessControlUpgradeable)72": {
        "encoding": "inplace",
        "label": "contract IAccessControlUpgradeable",
        "numberOfBytes": "20"
      },
      "t_mapping(t_address,t_uint256)": {
        "encoding": "mapping",
        "key": "t_address",
        "label": "mapping(address => uint256)",
        "numberOfBytes": "32",
        "value": "t_uint256"
      },
      "t_mapping(t_bytes32,t_uint256)": {
        "encoding": "mapping",
        "key": "t_bytes32",
        "label": "mapping(bytes32 => uint256)",
        "numberOfBytes": "32",
        "value": "t_uint256"
      },
      "t_struct(AddressSet)2157_storage": {
        "encoding": "inplace",
        "label": "struct EnumerableSet.AddressSet",
        "members": [
          {
            "astId": 2156,
            "contract": "contracts/distributions/TokenDistributor_v4.sol:TokenDistributor_v4",
            "label": "_inner",
            "offset": 0,
            "slot": "0",
            "type": "t_struct(Set)1856_storage"
          }
        ],
        "numberOfBytes": "64"
      },
      "t_struct(Set)1856_storage": {
        "encoding": "inplace",
        "label": "struct EnumerableSet.Set",
        "members": [
          {
            "astId": 1851,
            "contract": "contracts/distributions/TokenDistributor_v4.sol:TokenDistributor_v4",
            "label": "_values",
            "offset": 0,
            "slot": "0",
            "type": "t_array(t_bytes32)dyn_storage"
          },
          {
            "astId": 1855,
            "contract": "contracts/distributions/TokenDistributor_v4.sol:TokenDistributor_v4",
            "label": "_indexes",
            "offset": 0,
            "slot": "1",
            "type": "t_mapping(t_bytes32,t_uint256)"
          }
        ],
        "numberOfBytes": "64"
      },
      "t_uint256": {
        "encoding": "inplace",
        "label": "uint256",
        "numberOfBytes": "32"
      },
      "t_uint64": {
        "encoding": "inplace",
        "label": "uint64",
        "numberOfBytes": "8"
      },
      "t_uint8": {
        "encoding": "inplace",
        "label": "uint8",
        "numberOfBytes": "1"
      }
    }
  }
}